:020000040000FA
:1000000000008A159B2CFF34F200030E8301F100DF
:100010000A088A01F000040883120317AC00831257
:1000200003130C08013983120317930013080319F3
:10003000922910308312031386061F080439031D0A
:1000400001308312031793001308031D71298312D3
:1000500003172B08031D98282030831203138606EC
:100060000130831203172707831203179300FC3014
:1000700094008312031728080318280A0319432839
:10008000831203179407831203171308FF00140841
:100090008A15CE268A118312031796007F089500D1
:1000A0007E0894007D089300F9001408FA001508F2
:1000B000FB001608FC00D430FD002B30FE0025307C
:1000C000FF003F308A11F7218A118312031796002F
:1000D0007F0895007E0894007D0893000030F900A9
:1000E0008030FA007C30FB004430FC001308FD0037
:1000F0001408FE001508FF0016088A1500208A1152
:100100008312031796007F0895007E0894007D08EF
:100110009300FD001408FE001508FF0016088A155C
:1001200094258A1183120317AA007F08A9002429A5
:100130004030831203138606853083120317270786
:10014000831203179300FF309400831203172808CB
:100150000318280A0319AF28831203179407831280
:1001600003171308FF0014088A15CE268A1183127C
:10017000031796007F0895007E0894007D08930081
:10018000F9001408FA001508FB001608FC00873077
:10019000FD001630FE00D130FF0040308A11F721FB
:1001A0008A118312031796007F0895007E08940039
:1001B0007D0893000030F900C030FA007F30FB006A
:1001C0004430FC001308FD001408FE001508FF0071
:1001D00016088A1500208A118312031796007F08DB
:1001E00095007E0894007D089300FD001408FE0031
:1001F0001508FF0016088A1594258A118312031723
:10020000AA007F08A9002A08803E7C3E031D0A2917
:1002100000302902031C1329FF3083120317A900A1
:100220000330AA002429831203172A08803E7F3E48
:10023000031D1C295E302902031824295E30831215
:100240000317A9000130AA00031083120317AA1B89
:1002500003142A0C83120317940083120317290C2A
:100260008312031793000310941B0314940C930C34
:1002700094011308831203139500831203172908AE
:1002800001398312031793009400140C03184B29AF
:10029000831203131712031C50298312031317161A
:1002A0000230831203172905831203179300940168
:1002B0000310941B0314140C9600130C9500930068
:1002C000130C03186629831203139712031C6B295E
:1002D000831203139716831203172B088A15A1267E
:1002E0008A118312031795018312031726088312BC
:1002F00003179300831203138F00831203179501D2
:100300008312031725088312031793008312031324
:100310008E000C08831203179300FE30130583121E
:1003200003138C00831203130C084039031D0130A2
:1003300083120317930013080319CB290430831287
:10034000031386061E0883120317A700A8012708B7
:10035000A800A701831603131E0883120317930036
:100360009601130883120317A7070030031CBD2949
:1003700083120317160A0319C02983120317A8074B
:10038000831203130C08831203179300BF30130565
:10039000831203138C00831203130B080239031D0D
:1003A000013083120317930013080319E92902305F
:1003B00083120313860683120317AB0983120313F8
:1003C0000B08831203179300FD30130583120313E8
:1003D0008B00831203172C08831203138400700808
:1003E0008A008301710E8300F20E720E09008312DF
:1003F0000313C3007F08C2007E08C1007D0883127A
:100400000313D30083120313C0007C08C7007B08CA
:10041000C6007A08C500790883120313D700831237
:100420000313C400410883120313D400831203137F
:10043000420883120313D500831203134308831267
:100440000313D60083120313450883120313D80045
:1004500083120313460883120313D9008312031374
:10046000470883120313DA0083120313530883121D
:100470000313C00083120313540883120313C10033
:1004800083120313550883120313C200831203134C
:10049000560883120313C300400841044204430476
:1004A0000319702A83120313570883120313C00021
:1004B00083120313580883120313C100831203131A
:1004C000590883120313C200831203135A088312BC
:1004D0000313C3004008410442044304031D782A67
:1004E0000030FD000030FE000030FF000030772DAE
:1004F00083120313530883120313C00083120313E0
:10050000540883120313C100831203135508831286
:100510000313C20083120313560883120313C3008C
:100520008039031D0130C40083120313570883125E
:100530000313C00083120313580883120313C1006E
:1005400083120313590883120313C2008312031387
:100550005A0883120313C3008039031D0130C500FC
:100560004406C00083120313530883120313C1000F
:1005700083120313540883120313C200831203135C
:10058000550883120313C300831203135608831202
:100590000313C400430D440DC100C500C601C60DC0
:1005A000C701C801C201C301C4018230C107FF30C5
:1005B000031CC207FF30031CC307FF30031CC40722
:1005C0004108C5004208C60083120313570883126E
:1005D0000313C10083120313580883120313C200CC
:1005E00083120313590883120313C30083120313E6
:1005F0005A0883120313C400430D440DC100C70001
:10060000C801C80DC901CA01C201C301C40145081E
:10061000C7004608C8000030C81BFF30CA00C90028
:1006200041084707C10048080318480FC207490896
:100630000318490FC3074A0803184A0FC4074108A3
:10064000C5004208C6008312031353088312031324
:10065000C10083120313540883120313C2008312D0
:100660000313550883120313C300831203135608A0
:1006700083120313C400C313C401C31741088312B8
:100680000313D30083120313420883120313D4000D
:1006900083120313430883120313D5000030D600DE
:1006A00083120313570883120313C1008312031329
:1006B000580883120313C2008312031359088312CC
:1006C0000313C300831203135A0883120313C400D5
:1006D000C313C401C317410883120313D700831245
:1006E0000313420883120313D80083120313430831
:1006F00083120313D9000030DA0083120313530866
:1007000083120313C10083120313540883120313CB
:10071000C700C20083120313550883120313C800D5
:10072000C30083120313560883120313C900C400C5
:10073000CA0183120313570883120313C1008312E3
:100740000313580883120313CB00C2008312031350
:10075000590883120313CC00C300831203135A08F1
:1007600083120313CD00C400CE014B08F9004C08DE
:10077000FA004D08FB000030FC004708FD00480867
:10078000FE004908FF0000308A150000EC238A11A2
:10079000000083120313C4007F08C3007E08C20058
:1007A0007D08C10083120313530883120313C7008B
:1007B00083120313540883120313C8008312031314
:1007C000550883120313C9008312031356088312BA
:1007D0000313CA00C801C901CA01831203135708D1
:1007E00083120313CB0083120313580883120313DD
:1007F000CC0083120313590883120313CD00831214
:1008000003135A0883120313CE00D2014C08CF0001
:10081000F9004D08D000FA004E08D100FB0000306E
:10082000FC004708FD000030FE000030FF000030F3
:100830008A150000EC238A11000083120313CD00F7
:10084000CA007F08CC00C9007E08C8007D08C70028
:10085000CE014808CB00C1074C0803184C0FC20753
:100860004D0803184D0FC3074E0803184E0FC40759
:1008700083120313570883120313C7008312031351
:10088000580883120313C8008312031359088312F4
:100890000313C900831203135A0883120313CA00F7
:1008A000C801C901CA018312031353088312031339
:1008B000CB0083120313540883120313CF00CC0020
:1008C00083120313550883120313D000CD00831243
:1008D0000313560883120313D100CE00D2014F0830
:1008E000F9005008FA005108FB000030FC004708EE
:1008F000FD000030FE000030FF0000308A150000CF
:10090000EC238A11000083120313CD00CA007F0874
:10091000CC00C9007E08CB00C8007D08C700CE010E
:100920004B08C1074C0803184C0FC2074D080318A9
:100930004D0FC3074E0803184E0FC4074030C107C0
:100940000318C20A0319C30A0319C40AC41FB82C26
:100950004030C1070318C20A0319C30A0319C40AA5
:100960004208C1004308C2004408C300C401C72CA8
:1009700083120313410D420DC100430DC200440D0B
:10098000C300C401C40DFF30C507031CC603831296
:100990000313C3134608803E7F3E031DD12C003055
:1009A0004502031C002D8312031340080319DE2C9B
:1009B000C701C801C9018030CA00E42C83120313A7
:1009C000C701C801C901CA0183120313C9177F30C7
:1009D000CA04470883120313D30083120313480881
:1009E00083120313D40083120313490883120313E1
:1009F000D500831203134A0883120313D600582D1F
:100A0000031483120313C61F0310031C0E2D83123D
:100A10000313D301D401D501D601582D0030831220
:100A20000313400403191A2DC001C701C801803007
:100A3000C900202D83120313C001C701C801C901D9
:100A4000831203134508CA004608CB000030CB1BB5
:100A5000FF30CD00CC004B0C4A0CCF00CE01CE0CA9
:100A6000C601C5010030C0040030C7044E08C804E8
:100A70004F08C9044008C1044708C2044808C30419
:100A80004908C404410883120313D30083120313DB
:100A9000420883120313D400831203134308831202
:100AA0000313D50083120313440883120313D600E3
:100AB00083120313530883120313C000831203131A
:100AC000540883120313C1008312031355088312C1
:100AD0000313C20083120313560883120313C300C7
:100AE0004008FD004108FE004208FF0043080800DE
:100AF00083160313A3007F08A2007E08A1007D08CF
:100B000083160313A90083160313A0007C08A70013
:100B10007B08A6007A08A500790883160313AD00A8
:100B200083160313A400210883160313AA00831657
:100B30000313220883160313AB0083160313230841
:100B400083160313AC0083160313250883160313BF
:100B5000AE0083160313260883160313AF00831613
:100B60000313270883160313B00083160313290801
:100B700083160313A000831603132A088316031396
:100B8000A100831603132B0883160313A2008316F8
:100B900003132C0883160313A3000314A31F0310CD
:100BA000031C372E831603132D0883160313A0008E
:100BB000831603132E0883160313A1008316031351
:100BC0002F0883160313A20083160313300883161D
:100BD0000313A3000314A31F0310031C372E831653
:100BE00003132D0883160313A000831603132E0886
:100BF00083160313A100831603132F088316031310
:100C0000A20083160313300883160313A300831670
:100C10000313290883160313A400831603132A0859
:100C200083160313A500831603132B0883160313DF
:100C3000A600831603132C0883160313A7002308AA
:100C4000803EA8002708803E2802031D312E26087A
:100C50002202031D312E25082102031D312E2408F6
:100C600020020318352E01307E2E00307E2E831692
:100C70000313290883160313A000831603132A08FD
:100C800083160313A100831603132B088316031383
:100C9000A200831603132C0883160313A3008316E4
:100CA00003132D0883160313A400831603132E08C1
:100CB00083160313A500831603132F08831603134B
:100CC000A60083160313300883160313A700230816
:100CD000803EA8002708803E2802031D792E2608A2
:100CE0002202031D792E25082102031D792E2408D6
:100CF000200203187D2E01307E2E0030080083165E
:100D00000313B4007F08B3007E08B2007D08B10071
:100D100083160313BD0083160313320883160313CF
:100D2000BE0083160313330883160313BF00831614
:100D30000313340883160313C0003D0883160313FE
:100D4000B100831603133E0883160313B200831603
:100D500003133F0883160313B300831603134008DD
:100D600083160313B4003108320433043404031926
:100D7000DC2E831603133D0883160313B500B10060
:100D8000831603133E0883160313B600B2008316BE
:100D900003133F0883160313B700B300831603132E
:100DA000400883160313B400B8008039031D0130D6
:100DB000B10031080319E42E0030FD000030FE00C0
:100DC0000030FF000030662F831603133D088316A2
:100DD0000313B800B100831603133E0883160313F0
:100DE000B900B500831603133F0883160313BA0036
:100DF000B60083160313400883160313BB00B70025
:100E00003A0D3B0DB800B100B501B50DB601B70103
:100E1000B901BA01BB016A30B807FF30031CB9073A
:100E2000FF30031CBA07FF30031CBB073808B100B2
:100E30003908B500831603133D0883160313BA005F
:100E4000B600831603133E0883160313BB00B700D6
:100E5000831603133F0883160313BC00B8008316E0
:100E60000313400883160313B9003A08B6003B0881
:100E7000B7007F303C05B800B901B817B109B50912
:100E8000B10A0319B50A3108B11B532F003C0319ED
:100E90005D2F83160313B90CB80CB70CB60C013ECA
:100EA000031C492F5D2F031083160313B60DB70DD6
:100EB000B80DB90D013E031C542F831603133608D9
:100EC000FD003708FE003808FF00390808008316C7
:100ED0000313E0007F08DF007E08DE007D08DD00F0
:100EE0005E045F046004031D7D2F0030FD000030B0
:100EF000FE000030FF000030E42F0030F900003029
:100F0000FA000030FB000030FC00831603135D087C
:100F1000FD005E08FE005F08FF0060088A11000007
:100F200078258A11000083160313E1006108031974
:100F3000C72F6008803AE4005D08E100FD005E080C
:100F4000E200FE005F08E300FF0064088A11000071
:100F50007F268A11000083160313E4007F08E30054
:100F60007E08E2007D08E100E109E209E309E40905
:100F7000E10A0319E20A0319E30A0319E40A610802
:100F8000FD006208FE006308FF006408E42F83167A
:100F900003135D08FD005E08FE005F08FF006008A7
:100FA0008A1100007F268A11000083160313E000D7
:100FB0007F08DF007E08DE007D08DD00FD005E08A2
:100FC000FE005F08FF0060080800E330831603138B
:100FD0008500013086001C30831203138504F6302F
:100FE00086040800831203131014080083120313ED
:100FF0009001FA308F0011308E0008009934F934D6
:1010000083120313A3007F08A2007E08A1007D08BD
:1010100083120313B80083120313A0007C08A700F7
:101020007B08A6007A08A500790883120313BC0088
:1010300083120313A400A801A901AA01AB0121088E
:1010400083120313B90083120313220883120313BC
:10105000BA0083120313230883120313BB00831205
:101060000313250883120313BD00831203132608FC
:1010700083120313BE008312031327088312031382
:10108000BF0083120313380883120313A0008312D6
:101090000313390883120313A100831203133A08C0
:1010A00083120313A200831203133B08831203135A
:1010B000A3002008210422042304031D7F28831297
:1010C00003133C0883120313A000831203133D088B
:1010D00083120313A100831203133E088312031328
:1010E000A200831203133F0883120313A3002008F6
:1010F000FD002108FE002208FF002308382B831280
:1011000003133C0883120313A000831203133D084A
:1011100083120313A100831203133E0883120313E7
:10112000A200831203133F0883120313A3002008B5
:10113000210422042304031DBD288312031338084D
:1011400083120313A00083120313390883120313BD
:10115000A100831203133A0883120313A20083121F
:1011600003133B0883120313A3002008FD0021088A
:10117000FE002208FF002308382B831203133808CF
:1011800083120313A000831203133908831203137D
:10119000A100831203133A0883120313A2008312DF
:1011A00003133B0883120313A300220D230DA00099
:1011B000A400A501A50DA601A701A101A201A301FB
:1011C0002008A4000030A500831203133C088312FA
:1011D0000313A000831203133D0883120313A1001D
:1011E000831203133E0883120313A2008312031316
:1011F0003F0883120313A300220D230DA000A600B5
:10120000A701A70DAC01AD01A101A201A30100300E
:10121000A70019302607A000A101A10D2708A107EA
:101220002108803EAE002508803E2E02031D1A29AB
:101230002408200203183C29831203133808831260
:101240000313A00083120313390883120313A100B0
:10125000831203133A0883120313AC00831203139F
:101260003B0883120313AD002008FD002108FE0097
:101270002C08FF002D08382B193083120313240784
:10128000A000A101A10D2508A1072108803EAE0004
:101290002708803E2E02031D4F292608200203182E
:1012A0007129831203133C0883120313A0008312D5
:1012B00003133D0883120313A100831203133E0896
:1012C00083120313AC00831203133F08831203132A
:1012D000AD002008FD002108FE002C08FF002D08AD
:1012E000382B83120313380883120313A0008312D0
:1012F0000313390883120313A100831203133A085E
:1013000083120313AC00831203133B0883120313ED
:10131000AD00AC13AD01AC17831203133C0883126C
:101320000313AE00831203133D0883120313AF00AF
:10133000831203133E0883120313B00083120313B6
:101340003F0883120313B100B013B101B017831229
:101350000313380883120313B200831203133908EE
:1013600083120313B300831203133A088312031387
:10137000B400831203133B0883120313B5008039B2
:10138000031D0130B60036080319D129A009A109AF
:10139000AC09AD09A00A0319A10A0319AC0A031983
:1013A000AD0A831203133C0883120313B2008312A5
:1013B00003133D0883120313B300831203133E0883
:1013C00083120313B400831203133F088312031321
:1013D000B5008039031D0130B60036080319FB291A
:1013E000AE09AF09B009B109AE0A0319AF0A031972
:1013F000B00A0319B10A831203132708803EB7000D
:101400002508803E3702031D072A240826020318F8
:10141000312A8312031326082402B2002708031C72
:10142000270A2502B3003208B21B262A003C031902
:10143000302A031083120313B11B0314B10CB00C38
:10144000AF0CAE0C013E031C192A302A0310831284
:101450000313AE0DAF0DB00DB10D013E031C272AD5
:101460005E2A8312031324082602B2002508031CF7
:10147000250A2702B3003208B21B4E2A003C03198A
:10148000582A031083120313AD1B0314AD0CAC0CCC
:10149000A10CA00C013E031C412A582A0310831200
:1014A0000313A00DA10DAC0DAD0D013E031C4F2A81
:1014B000831203132608A4002708A5008312031330
:1014C0002E08A0072F0803182F0FA10730080318B4
:1014D000300FAC0731080318310FAD070314AD1FEF
:1014E0000310031C842AA009A109AC09AD09A00AB4
:1014F0000319A10A0319AC0A0319AD0AA801A9012D
:10150000AA018030AB00942A83120313200821041F
:101510002C042D04031D942A0030FD000030FE0031
:101520000030FF000030382B831203132008A60080
:101530002108A7002C08AE002D08AF00AE1BAE2A74
:101540002F08FF39031DAE2A0310A00DA10DAC0D0D
:10155000AD0DFF30A407031CA503942A83120313C7
:101560002008A6002108A7002C08AE002D08AF0017
:10157000FF390319D22A201CC52A0230A0070318FC
:10158000A10A0319AC0A0319AD0A0310831203134D
:10159000AD1B0314AD0CAC0CA10CA00CA40A0319D8
:1015A000A50AAE2A831203132608A0002708A1006B
:1015B0007F302E05AC002F08AD002408A6002508BA
:1015C000A7000030A71BFF30AF00AE00270C260C91
:1015D000B100B001B00CA501A4010030A804003096
:1015E000A9043008AA043108AB042008A400280488
:1015F00083120313B80083120313A0002108A5006F
:10160000290483120313B90083120313A1002C08C9
:10161000A6002A0483120313BA0083120313AC003A
:101620002D08A7002B0483120313BB00831203139E
:10163000AD0083120313380883120313A000831232
:101640000313390883120313A100831203133A080A
:1016500083120313A400831203133B0883120313A2
:10166000A5002008FD002108FE002408FF00250831
:10167000080083160313C4007F08C3007E08C2005D
:101680007D08C100420443044404031D4F2B003075
:10169000FD000030FE000030FF000030EB2B9630E4
:1016A00083160313C500C601831603134408FF39CC
:1016B0000319632B0310C40CC30CC20CC10CC50A64
:1016C0000319C60A542B83160313C31B752B440836
:1016D000FF39031D752B0310C10DC20DC30DC40DC1
:1016E000FF30C507031CC603632B8316031345088D
:1016F000C7004608C8004208CA007F304305CB0037
:10170000CC014108C900FF3A031D9D2B4A08FF3A4E
:10171000031D9D2B4B087F3A031D9D2B4C08003A5F
:10172000031D9D2BC101C201C301C4010130450746
:10173000C700C801C80D4608C80783160313C313A2
:101740004708C5004808C6000030C61BFF30CA0065
:10175000C900460C450CCC00CB01CB0CC801C7011D
:101760000030C1040030C2044B08C3044C08C40458
:10177000410883160313CD00831603134208831612
:101780000313CE0083160313430883160313CF00FD
:1017900083160313440883160313D0004D088316E1
:1017A0000313C100831603134E0883160313C200EC
:1017B000831603134F0883160313C3008316031302
:1017C000500883160313C4004108FD004208FE00C0
:1017D0004308FF004408080083120313DE007F085B
:1017E000DD007E08DC007D08DB007C08E2007B0871
:1017F000E1007A08E0007908DF00E301E401E50197
:10180000E6010830E700831203135B1C152C5F0808
:10181000E30760080318600FE40761080318610F0D
:10182000E50762080318620FE607831203135B08DB
:10183000E8005C08E9005D08EA005E08EB00691C4E
:10184000352C6108EB006008EA00E8010030E3078E
:101850005F08E9000318690FE4076A0803186A0FB4
:10186000E5076B0803186B0FE607831203135B0889
:10187000E8005C08E9005D08EA005E08EB006A1C0D
:10188000552C6008EB005F08EA00E901E801003030
:10189000E30700300318690FE4076A0803186A0FAA
:1018A000E5076B0803186B0FE607831203135B0849
:1018B000E8005C08E9005D08EA005E08EB006B1CCC
:1018C000742C5F08EB00EA01E901E8010030E3074E
:1018D00000300318690FE4076A0803186A0FE50768
:1018E0006B0803186B0FE607831203135B08E8000D
:1018F0005C08E9005D08EA005E08EB0003106B0C71
:10190000DE006A0CDD00690CDC00680CDB000310F3
:10191000DF0DE00DE10DE20D6708E8006803E70068
:101920006708031D032C6308FD006408FE006508BA
:10193000FF0066080800F630FE000E30FF00803021
:101940008A15000080268A15000083160313D20032
:101950007F08D100F830D3000E30D4008316031373
:101960005108D5005208D600FF30D107031CD2031E
:10197000550856040319332D04305307D500D601FA
:10198000D60D5408D6075508FE005608FF008030D3
:101990008A15000080268A15000083160313D800DC
:1019A0007F08D7005308FE005408FF0080308A15D6
:1019B000000080268A15000083160313DA00D60083
:1019C0007F08D900D50002305307D500D601D60DC7
:1019D0005408D6075508FE005608FF0080308A15C7
:1019E000000080268A15000083160313D600DC0051
:1019F0007F08D500DB00831603135708DB00580867
:101A0000DC00FF30D707031CD8035B085C04031914
:101A10002C2D5908FE005A08FF0080308A1500005E
:101A20006D268A15000083160313DB005508831208
:101A300003138400831383160313561883175B085C
:101A400083120313800083160313D90A0319DA0AD9
:101A5000D50A0319D60AFB2C063083160313D307C5
:101A60000318D40AAE2C8A1500001C2F0800831618
:101A70000313E8007F08E7007E08E6007D08E50024
:101A80000314E81F0310031C762D6509E90066099D
:101A9000EA006709EB006809EC00E90A0319EA0AA1
:101AA0000319EB0A0319EC0A6908FD006A08FE0035
:101AB0006B08FF006C088A15000039238A150000A6
:101AC00083160313EC007F08EB007E08EA007D0814
:101AD000E9006C08803AEC006B086A086908FD00B0
:101AE0006A08FE006B08FF006C08932D8316031331
:101AF0006508FD006608FE006708FF0068088A1593
:101B0000000039238A15000083160313E8007F08BC
:101B1000E7007E08E6007D08E500FD006608FE009F
:101B20006708FF006808080083120317A4007F08F5
:101B3000A3007E08A2007D08A100FD002208FE008F
:101B40002308FF0024088A11000067278A15000077
:101B500083120317A4007F08A3007E08A2007D085B
:101B6000A1002408803E803E031DC02D00302302CA
:101B7000031DC02D7F302202031DC02DFF30210226
:101B8000031CC62DFF30FF007F30E22D83120317A8
:101B90002408803E813E031DD72DFF302302031D04
:101BA000D72D80302202031DD72D013021020318CA
:101BB000DD2D0030FF008030E22D83120317210855
:101BC000FF0022080800831203179E007F089D0073
:101BD00003109E1B03141E0CA0001D0C9F0003107D
:101BE000A01B0314A00C9F0CA0011F088312031359
:101BF0009500831203171D0801399F00A000200CD7
:101C00000318052E831203131712031C0A2E8312C6
:101C1000031317160230831203179D059E0103104C
:101C20009E1B03141E0CA0001D0C9F009D001D0C8C
:101C300003181D2E831203139712031C222E8312E6
:101C4000031397160800FF308316031392000F301A
:101C50008312031397009501043092000800831249
:101C600003138B170800831203130B17080083124A
:101C700003130C08831203179200FE30120583121F
:101C800003138C00831603130C1408008312031330
:101C90000C08831203179100BF3011058312031340
:101CA0008C00831603130C17080083160313010816
:101CB000831203179000BF301005831603138100B1
:101CC000831203130B08831203179000FD301005D5
:101CD000831203138B000B160800003A0319742EAD
:101CE000803A03197B2E00347E08840083137F180A
:101CF0008317000808007F088A007E088200080019
:101D0000003A0319882E803A0319922EFF010034FD
:101D10007E08840083137F1883170008FF00840A5D
:101D2000000808008A1500007B26FD00FE0FFF0357
:101D3000FF0A8A1500007B26FC007D08FF007C0856
:101D4000080083160313EF006F08031DAC2E01304B
:101D5000831203139F00B02E0930831203139F00D8
:101D6000C026831203131F150800033083160313C4
:101D70009B00C0309F000130831203139F000800B6
:101D80000A3083160313ED00831603136D08EE006B
:101D90006E03ED006D08031DC42E080083120317A7
:101DA0009A0098007F089700990000309A1BFF3036
:101DB0009C009B001908FD001A08FE001B08FF008C
:101DC0001C088A15000037258A15000083120317A6
:101DD0009A007F0899007E0898007D089700FD0012
:101DE0001808FE001908FF001A080800063400341D
:101DF000FE34073425340134023400340334003413
:101E00002B3401340134003444340F34273401348A
:101E10000234003446340F3429340134023400349F
:101E200040340F346C3400340434003448340F34FC
:101E30002D340134013400344630831603138F00EF
:101E40008A11E5278A158A11F6278A158A15B5267B
:101E50008A158A1523268A158A1555268A158A1504
:101E600046268A158A1537268A158A1533268A1535
:101E70008A152F268A158A11F2278A153E2F080007
:101E800000340034003400340034003400340034B2
:021E900000341C
:02400E00382F49
:02401000FC3F73
:00000001FF
